:1000000009C018951895189518951895189518956C
:10001000189518958FE98DBFC0E8E0E84E2EDD27D2
:100020005D2EA89584B7082E877F84BF88E1992725
:1000300081BD91BDEEE3F0E0A0E6B0E088278D93AE
:100040003197E9F7662486E886B980E087B9379A60
:1000500088E592E0A6E68D939C9388E993E0A4E678
:100060008D939C93B99AC1988AE090E069D007B1CA
:100070000C7F036007B973D0A0E68D939C938AE050
:1000800090E05ED007B10C7F016007B968D0A2E6AE
:100090008D939C938AE090E053D0A4E64D915C91BF
:1000A000A0E60D911C910417150710F009F002C08D
:1000B000D9CF34C0A6E64D915C91A2E60D911C917A
:1000C0000417150708F428C081E083BF81EA8FBDBB
:1000D00081E083BF72E379BD84EF91E031D088275E
:1000E00083BF81E083BF81E08FBDB99AC19AE7E009
:1000F000F0E017D081E083BF81EA8FBD81E083BF4C
:100100007EE179BD84EF91E01BD0882783BF81E039
:1001100083BF81E08FBD02C0B99AC19899CFF8948E
:10012000FFCF88EE93E00CD03197D9F7089531973F
:10013000F1F70895689462F80895E89462F80895D4
:10014000EF93FF93EE27E82BE92B31F0E0E6F9E09F
:100150003197F1F70197D1F7FF91EF910895369A12
:100160003699FECF369A3699FECF84B195B108956F
:10017000FFFFFFFFFFFFFFFFFFFFFFFFFFFFFFFF8F
:10018000FFFFFFFFFFFFFFFFFFFFFFFFFFFFFFFF7F
:10019000FFFFFFFFFFFFFFFFFFFFFFFFFFFFFFFF6F
:1001A000FFFFFFFFFFFFFFFFFFFFFFFFFFFFFFFF5F
:00000001FF
