:1000000016C030C0C4C22EC02DC088C02BC02AC0AC
:10001000B9C028C027C026C025C024C023C025C21F
:100020002AC268C27FC233C249C24EC265C211240D
:100030001FBECFE5D1E0DEBFCDBF10E0A0E6B0E04F
:10004000E2E0F7E002C005900D92A436B107D9F7BF
:1000500010E0A4E6B0E001C01D92A638B107E1F7B8
:10006000ABD14DC3CDCFEF92FF920F931F93209151
:1000700082003091830060E070E1621B730B90E0BE
:10008000EAD27C0100E010E0B90180E090E020912C
:100090006700309168004091690050916A00EDD28C
:1000A0003CE096958795779567953A95D1F76E0DD3
:1000B0007F1D801F911F609367007093680080937D
:1000C000690090936A00DC01CB012CE0B695A795FE
:1000D000979587952A95D1F71F910F91FF90EF90F3
:1000E000089583B7826083BF83E08ABD8AB5806349
:1000F0008ABD0895DF93CF930F92CDB7DEB78823E3
:1001000021F49AB59F7C9ABD03C08983EADF898177
:10011000809588BD0F90CF91DF9108951F920F9227
:100120000FB60F9211248F939F938091630081509B
:1001300080936300882341F486E08093630080917C
:10014000700082608093700087B18C7F87B987B11F
:10015000836087B9369A80917D0090917E008F3FB1
:10016000910511F008F08FEF80937300809170007B
:100170008160809370009F918F910F900FBE0F90C0
:100180001F9018951F920F920FB60F9211248F9304
:100190009F9387B190E0837090708130910589F0D2
:1001A0008330910501F584B195B190937E008093E1
:1001B0007D001092660087B18C7F87B9389A369A95
:1001C00012C084B195B19093800080937F0090918C
:1001D0006600923040F487B18C7F87B9389A369A9E
:1001E0009F5F909366009F918F910F900FBE0F902D
:1001F0001F90189520916D0030E040918100809112
:100200007B0090E0840F911D8217930764F4809126
:100210006000853041F0863031F0873021F080E099
:1002200069DF1092600080916000833009F443C060
:10023000843028F48130E1F0823058F50AC08630ED
:1002400009F466C0873009F480C0853009F0B3C076
:100250004AC020916D0030E080917B0090E0409199
:100260008100841B9109821793070CF4A4C04BC032
:100270008091610090916200009731F00197909316
:10028000620080936100089580E034DF1092600086
:1002900008958091700083FF8EC0809171009091CD
:1002A0007200909362008093610081EE23DF83E00F
:1002B00080936000089580916100909162000097A2
:1002C00011F101979093620080936100809170001A
:1002D00083FF71C0809171009091720090936200D1
:1002E000809361002CC08091610090916200009722
:1002F00051F00197909362008093610089329105DB
:1003000090F080E02FC080917A00F4DE82E015C08A
:100310008091610090916200009741F00197909365
:1003200062008093610080917A001CC080E590E0BB
:10033000909362008093610085E0809360008091DB
:100340007000877F80937000089580916100909184
:100350006200009749F001979093620080936100DA
:1003600080916500C7DE089580E590E0909362007B
:100370008093610085E08093600080917000877FAA
:100380008093700080916400823049F0833061F086
:10039000813079F484E090E060917A0009C080E0D7
:1003A00090E060917B0004C081E090E060917C006F
:1003B00089D1109264000895EF92FF920F931F93DA
:1003C000CF93DF9380E090E071D1182F80937B0072
:1003D00081E090E06BD180937C0082E090E06ED170
:1003E000909383008093820084E090E05FD18093BB
:1003F0007A0085E090E062D1909372008093710062
:1004000012951F701093810081E08093600087B384
:10041000826187BB87B18C7F87B986B18B6886B9CB
:1004200084B38C6084BBACD089B7826089BF12BEB4
:1004300081EE60DE56DE7894C8ECD0E017E063E031
:10044000E62E52E0F52E01E080916B00823009F03B
:100450006CC0E0918400EF73F0E03197E830F10573
:1004600008F061C0E15FFF4F099480917A00843603
:1004700058F48B5F05C080917A008B3028F085504E
:1004800080937A000093640080917A000EC080917E
:100490007B00883C28F48F5F80937B00F09264009F
:1004A00080917B0065E0CED0875080936500D0932B
:1004B0006200C09361001093600035C080917B00A2
:1004C000813A70F38150E8CF80917C008C3828F419
:1004D0008F5F80937C00E092640080917C0065E0F7
:1004E000B1D08B5D80936500D0936200C0936100B2
:1004F00010936000C49A17C080917C00853628F064
:10050000815080937C00E092640080917C0065E0E3
:1005100099D08B5D80936500D0936200C093610099
:1005200010936000C49810926B008091700081FF5E
:1005300006C060DE809170008D7F80937000809196
:10054000700080FF0AC0809173008DDD80936D0084
:10055000809170008E7F8093700080917F009091D9
:100560008000969587959695879520917C00281711
:1005700008F06ACF8091700088608093700064CF2B
:10058000A89A8BB780628BBF80916B0008951F92F1
:100590000F920FB60F9211242F933F934F938F9387
:1005A0009F938AB780628ABF339889B78D7F89BF4E
:1005B0008BB78F7D8BBF80916B00882349F410929D
:1005C00085001092840010926C0081E080936B0093
:1005D00040916C004E30A8F4809184009091850089
:1005E00021E030E0B09B02C020E030E0880F991F8E
:1005F000822B932B90938500809384004F5F4093D0
:100600006C0080916C008E3019F482E080936B0056
:100610008DE591E00197F1F700C000008AB7806294
:100620008ABF339A89B7826089BF8BB780628BBFDC
:100630009F918F914F913F912F910F900FBE0F90EF
:100640001F901895002480FD060E660F11F0869508
:10065000D1F7802D08955527002480FF02C0060E93
:10066000571F660F771F6115710521F096958795C5
:10067000009799F7952F802D0895FF27EE27BB2728
:10068000AA2760FF04C0A20FB31FE41FF51F220FAB
:10069000331F441F551F969587957795679589F762
:1006A0000097760771F7CF01BD010895E199FECF5C
:1006B0001FBA8EBBE09A99278DB30895A8E1B0E0E8
:1006C00042E010C0262FE199FECF1CBA1FBA8EBBA4
:1006D0002DBB0FB6F894E29AE19A0FBE01960895E9
:1006E000DC01862FE82FE199FECF1FBA05C0EEBBD3
:1006F000E09AE3950DB20D924150C8F70895F89431
:02070000FFCF29
:0407020001C8000624
:00000001FF
