:1000000016C030C0A9C22EC02DC088C02BC02AC0C7
:10001000B9C028C027C026C025C024C023C0F6C14F
:10002000FCC14CC264C213C219C231C249C21124FC
:100030001FBECFE5D1E0DEBFCDBF10E0A0E6B0E04F
:10004000ECECF6E002C005900D92A436B107D9F7AA
:1000500010E0A4E6B0E001C01D92A538B107E1F7B9
:1000600082D132C3CDCFEF92FF920F931F93209195
:1000700081003091820060E070E1621B730B90E0C0
:10008000CFD27C0100E010E0B90180E090E0209147
:100090006600309167004091680050916900D2D2AB
:1000A0003CE096958795779567953A95D1F76E0DD3
:1000B0007F1D801F911F609366007093670080937F
:1000C000680090936900DC01CB012CE0B695A79500
:1000D000979587952A95D1F71F910F91FF90EF90F3
:1000E000089583B7826083BF83E08ABD8AB5806349
:1000F0008ABD0895DF93CF930F92CDB7DEB78823E3
:1001000021F49AB59F7C9ABD03C08983EADF898177
:10011000809588BD0F90CF91DF9108951F920F9227
:100120000FB60F9211248F939F938091630081509B
:1001300080936300882341F486E08093630080917C
:100140006F00826080936F0087B18C7F87B987B121
:10015000836087B9369A80917C0090917D008F3FB3
:10016000910511F008F08FEF8093720080916F007D
:10017000816080936F009F918F910F900FBE0F90C1
:100180001F9018951F920F920FB60F9211248F9304
:100190009F9387B190E0837090708130910589F0D2
:1001A0008330910501F584B195B190937D008093E2
:1001B0007C001092650087B18C7F87B9389A369A97
:1001C00012C084B195B190937F0080937E0090918E
:1001D0006500923040F487B18C7F87B9389A369A9F
:1001E0009F5F909365009F918F910F900FBE0F902E
:1001F0001F90189520916C0030E040918000809114
:100200007A0090E0840F911D8217930724F480E018
:1002100071DF1092600080916000833009F443C068
:10022000843028F48130E1F0823058F50AC08630FD
:1002300009F461C0873009F478C0853009F092C0B4
:100240004AC020916C0030E080917A0090E04091AB
:100250008000841B9109821793070CF483C059C056
:100260008091610090916200009731F00197909326
:10027000620080936100089580E03CDF109260008E
:10028000089580916F0083FF6DC080917000909100
:100290007100909362008093610081EE2BDF83E018
:1002A00080936000089580916100909162000097B2
:1002B00081F10197909362008093610080916F00BB
:1002C00083FF50C080917000909171009093620004
:1002D0008093610024C0809161009091620000973A
:1002E000C1F001979093620080936100893291057B
:1002F00068F080E027C080916100909162000097D3
:1003000041F00197909362008093610080917900A1
:1003100019C080917900EEDE82E0809360008091C8
:100320006F00877F80936F000895809161009091A6
:100330006200009749F001979093620080936100FA
:1003400080916400D7DE089580E590E0909362008C
:100350008093610085E08093600080916F00877FCB
:1003600080936F0008950F931F93CF93DF9380E0E6
:1003700090E081D1182F80937A0081E090E07BD1CA
:1003800080937B0082E090E07ED190938200809306
:10039000810084E090E06FD18093790085E090E067
:1003A00072D1909371008093700012951F7010931A
:1003B000800081E08093600087B3826187BB87B152
:1003C0008C7F87B986B18B6886B984B38C6084BB17
:1003D000BCD089B7826089BF12BE81EE8BDE81DE20
:1003E0007894C8ECD0E017E006E080916A00823093
:1003F00009F080C0E0918300EF73F0E03197E830BE
:10040000F10508F075C0E15FFF4F09946091790034
:10041000643608F06DC06B5F06C0609179006B3088
:1004200008F466C065506093790084E090E02FD1B5
:10043000809179005FDE0093600080916F00877F7C
:1004400080936F00D0936200C093610051C06091AF
:100450007A00683C08F04CC06B5F06C060917A007F
:10046000613A08F445C0655060937A0080E090E0FE
:100470000ED180917A0065E0CAD0805280936400EA
:10048000D0936200C09361001093600031C060910E
:100490007B006C3898F46B5F60937B0081E090E0A8
:1004A000F6D080917B0065E0B2D0845F80936400D9
:1004B000D0936200C093610010936000C49A18C08A
:1004C00060917B00653698F0655060937B0081E019
:1004D00090E0DDD080917B0065E099D0845F8093CF
:1004E0006400D0936200C093610010936000C498D0
:1004F00010926A0080916F0081FF06C07BDE8091C0
:100500006F008D7F80936F0080916F0080FF0AC025
:1005100080917200A8DD80936C0080916F008E7FC7
:1005200080936F0080917E0090917F0096958795D3
:100530009695879520917B00281708F056CF8091DB
:100540006F00886080936F0050CFA89A8BB780624D
:100550008BBF80916A0008951F920F920FB60F9281
:1005600011242F933F934F938F939F938AB7806269
:100570008ABF339889B78D7F89BF8BB78F7D8BBF3B
:1005800080916A00882349F41092840010928300BD
:1005900010926B0081E080936A0040916B004E30B6
:1005A000A8F4809183009091840021E030E0B09B1A
:1005B00002C020E030E0880F991F822B932B90938C
:1005C0008400809383004F5F40936B0080916B00A9
:1005D0008E3019F482E080936A008DE591E00197F6
:1005E000F1F700C000008AB780628ABF339A89B7EA
:1005F000826089BF8BB780628BBF9F918F914F9133
:100600003F912F910F900FBE0F901F9018950024CF
:1006100080FD060E660F11F08695D1F7802D0895A6
:100620005527002480FF02C0060E571F660F771F54
:100630006115710521F096958795009799F7952F8B
:10064000802D0895FF27EE27BB27AA2760FF04C04F
:10065000A20FB31FE41FF51F220F331F441F551FA6
:10066000969587957795679589F70097760771F73F
:10067000CF01BD010895E199FECF1FBA8EBBE09A6C
:1006800099278DB30895A8E1B0E042E010C0262F6D
:10069000E199FECF1CBA1FBA8EBB2DBB0FB6F894E2
:1006A000E29AE19A0FBE01960895DC01862FE82FA9
:1006B000E199FECF1FBA05C0EEBBE09AE3950DB2FB
:0C06C0000D924150C8F70895F894FFCF48
:0406CC0001C800065B
:00000001FF
