:100000000EC028C027C026C025C080C023C022C083
:10001000CBC020C01FC01EC01DC01CC01BC01124EF
:100020001FBECFE5D1E0DEBFCDBF10E0A0E6B0E05F
:10003000EEE2F4E002C005900D92A436B107D9F7C4
:1000400010E0A4E6B0E001C01D92A138B107E1F7CD
:1000500050D1EBC1D5CFEF92FF920F931F93209118
:100060007F003091800060E070E1621B730B90E0D4
:1000700096D17C0100E010E0B90180E090E0209191
:10008000660030916700409168005091690099D1F5
:100090003CE096958795779567953A95D1F76E0DE3
:1000A0007F1D801F911F609366007093670080938F
:1000B000680090936900DC01CB012CE0B695A79510
:1000C000979587952A95D1F71F910F91FF90EF9003
:1000D000089583B7826083BF83E08ABD8AB5806359
:1000E0008ABD0895DF93CF930F92CDB7DEB78823F3
:1000F00021F49AB59F7C9ABD03C08983EADF898188
:10010000809588BD0F90CF91DF9108951F920F9237
:100110000FB60F9211242F933F934F935F936F93DA
:100120007F938F939F93AF93BF93EF93FF938091B0
:100130006300815080936300882341F486E08093BC
:10014000630080916D00826080936D0087B18C7F29
:1001500087B987B1836087B9369AC09A80917A004F
:1001600090917B008F3F910511F008F08FEF809305
:100170007000809170006FDF80936A0080916D0045
:10018000816080936D00FF91EF91BF91AF919F913E
:100190008F917F916F915F914F913F912F910F9030
:1001A0000FBE0F901F9018951F920F920FB60F92CF
:1001B00011248F939F9387B190E08370907081306A
:1001C000910591F08330910509F5C09884B195B1FE
:1001D00090937B0080937A001092650087B18C7FAA
:1001E00087B9389A369A12C084B195B190937D0040
:1001F00080937C0090916500923040F487B18C7FB1
:1002000087B9389A369A9F5F909365009F918F9136
:100210000F900FBE0F901F90189520916A0030E04C
:1002200040917E008091780090E0840F911D8217AC
:10023000930724F480E056DF109260008091600004
:10024000813011F1813030F0823049F1833009F092
:100250004FC037C020916A0030E08091780090E074
:1002600040917E00841B9109821793070CF440C0D3
:100270008091770037DF82E08093600080916D008D
:10028000877F80936D000895809161009091620056
:100290000097E9F480E026DF1092600008958091D5
:1002A0006D0083FF25C080916E0090916F00909348
:1002B00062008093610081EE15DF83E0809360002F
:1002C00008958091610090916200009731F001974C
:1002D000909362008093610008958091770002DF1F
:1002E00082E08093600080916D00877F80936D0035
:1002F00008951F9380E090E07DD0182F80937800C0
:1003000081E090E077D08093790082E090E07AD02D
:100310009093800080937F0084E090E06BD0809386
:10032000770085E090E06ED090936F0080936E0030
:1003300012951F7010937E0081E08093600087B358
:10034000836087BB87B18C7F87B986B18B6886B99C
:1003500084B38C6084BB89B7826089BF12BE81EE92
:10036000C1DEB7DE789480916D0081FF06C055DF55
:1003700080916D008D7F80936D0080917C009091C5
:100380007D009695879596958795209179002817F9
:1003900050F780916D00886080936D00E4CF552701
:1003A000002480FF02C0060E571F660F771F6115DD
:1003B000710521F096958795009799F7952F802DD7
:1003C0000895FF27EE27BB27AA2760FF04C0A20FCE
:1003D000B31FE41FF51F220F331F441F551F9695AF
:1003E00087957795679589F70097760771F7CF011D
:1003F000BD010895E199FECF1FBA8EBBE09A9927FF
:100400008DB30895A8E1B0E042E002C0DC01862F80
:10041000E82FE199FECF1FBA05C0EEBBE09AE39545
:0E0420000DB20D924150C8F70895F894FFCF29
:04042E0001C80006FB
:00000001FF
