:100000000EC028C0F1C126C025C080C023C022C0B8
:10001000B1C020C01FC01EC01DC01CC01BC0112409
:100020001FBECFE5D1E0DEBFCDBF10E0A0E6B0E05F
:10003000EEE2F5E002C005900D92A436B107D9F7C3
:1000400010E0A4E6B0E001C01D92A538B107E1F7C9
:1000500047D16BC2D5CFEF92FF920F931F932091A0
:1000600081003091820060E070E1621B730B90E0D0
:1000700016D27C0100E010E0B90180E090E0209110
:10008000660030916700409168005091690019D274
:100090003CE096958795779567953A95D1F76E0DE3
:1000A0007F1D801F911F609366007093670080938F
:1000B000680090936900DC01CB012CE0B695A79510
:1000C000979587952A95D1F71F910F91FF90EF9003
:1000D000089583B7826083BF83E08ABD8AB5806359
:1000E0008ABD0895DF93CF930F92CDB7DEB78823F3
:1000F00021F49AB59F7C9ABD03C08983EADF898188
:10010000809588BD0F90CF91DF9108951F920F9237
:100110000FB60F9211248F939F93809163008150AB
:1001200080936300882341F486E08093630080918C
:100130006F00826080936F0087B18C7F87B987B131
:10014000836087B9369A80917C0090917D008F3FC3
:10015000910511F008F08FEF8093720080916F008D
:10016000816080936F009F918F910F900FBE0F90D1
:100170001F9018951F920F920FB60F9211248F9314
:100180009F9387B190E0837090708130910589F0E2
:100190008330910501F584B195B190937D008093F2
:1001A0007C001092650087B18C7F87B9389A369AA7
:1001B00012C084B195B190937F0080937E0090919E
:1001C0006500923040F487B18C7F87B9389A369AAF
:1001D0009F5F909365009F918F910F900FBE0F903E
:1001E0001F90189520916C0030E040918000809124
:1001F0007A0090E0840F911D8217930724F480E029
:1002000071DF10926000809160008130E9F08130F0
:1002100030F0823051F1833009F061C038C0209154
:100220006C0030E080917A0090E040918000841B67
:100230009109821793070CF452C08091790052DF24
:1002400082E0809360003AC08091610090916200EA
:10025000009731F0019790936200809361000895B8
:1002600080E040DF10926000089580916F0083FF6E
:1002700036C08091700090917100909362008093DD
:10028000610081EE2FDF83E080936000089580910C
:100290006100909162000097B9F00197909362001D
:1002A0008093610080916F0083FF19C0809170007E
:1002B00090917100909362008093610080916F0033
:1002C000877F80936F000895809179000BDF82E033
:1002D0008093600080916F00877F80936F00089506
:1002E0001F9380E090E006D1182F80937A0081E080
:1002F00090E000D180937B0082E090E003D1909366
:1003000082008093810084E090E0F4D080937900B3
:1003100085E090E0F7D09093710080937000129583
:100320001F701093800081E08093600087B382612A
:1003300087BB87B18C7F87B986B18B6886B984B358
:100340008C6084BB4AD089B7826089BF12BE81EEBF
:10035000C9DEBFDE789480916A008130E1F380913C
:100360006A00823081F4809183008F7390E0813045
:10037000910521F08230910521F402C0C49A01C098
:10038000C49810926A0080916F0081FF06C02ADF36
:1003900080916F008D7F80936F0080916F0080FF50
:1003A0000AC08091720057DE80936C0080916F00CC
:1003B0008E7F80936F0080917E0090917F00969554
:1003C00087959695879520917B00281720F6809138
:1003D0006F00886080936F00BECFA89A8BB7806251
:1003E0008BBF80916A0008951F920F920FB60F92F3
:1003F00011242F933F934F938F939F938AB78062DB
:100400008ABF339889B78D7F89BF8BB78F7D8BBFAC
:1004100080916A00882349F410928400109283002E
:1004200010926B0081E080936A0040916B004E3027
:10043000A8F4809183009091840021E030E0B09B8B
:1004400002C020E030E0880F991F822B932B9093FD
:100450008400809383004F5F40936B0080916B001A
:100460008E3019F482E080936A008DE591E0019767
:10047000F1F700C000008AB780628ABF339A89B75B
:10048000826089BF8BB780628BBF9F918F914F91A4
:100490003F912F910F900FBE0F901F9018955527E9
:1004A000002480FF02C0060E571F660F771F6115DC
:1004B000710521F096958795009799F7952F802DD6
:1004C0000895FF27EE27BB27AA2760FF04C0A20FCD
:1004D000B31FE41FF51F220F331F441F551F9695AE
:1004E00087957795679589F70097760771F7CF011C
:1004F000BD010895E199FECF1FBA8EBBE09A9927FE
:100500008DB30895A8E1B0E042E002C0DC01862F7F
:10051000E82FE199FECF1FBA05C0EEBBE09AE39544
:0E0520000DB20D924150C8F70895F894FFCF28
:04052E0001C80006FA
:00000001FF
