:1000000009C021C020C067C01EC01DC01CC01BC0CD
:100010001AC0B0C011241FBECFE9CDBF10E0A0E6CA
:10002000B0E0E6EFF3E002C005900D92A436B10710
:10003000D9F710E0A4E6B0E001C01D92AE37B107D9
:10004000E1F73ED1D6C1DCCFEF92FF92CF93DF93A1
:10005000682F20917D0040E051E0CA01821B910988
:1000600070E082D1EC01609166007091670080E0E1
:1000700090E030E040E050E089D1672F782F892F61
:100080009927C60FD71FD0936700C09366007E01E3
:100090008F2DDF91CF91FF90EF90089583B782600D
:1000A00083BF83E08FBD8FB580638FBD0895DF93DD
:1000B000CF930F92CDB7DEB7882321F49FB59F7CF5
:1000C0009FBD03C08983EADF8981809589BD0F9038
:1000D000CF91DF9108951F920F920FB60F921124C6
:1000E0002F933F934F935F936F937F938F939F9340
:1000F000AF93BF93EF93FF93809163008150809300
:100100006300882341F486E08093630080916B0054
:10011000826080936B0080917800909179008F3F8E
:10012000910511F008F08FEF80936E0080916E00C2
:100130008BDF80936800F89487B18C7F87B987B193
:10014000836087B9369A789480916B008160809340
:100150006B00FF91EF91BF91AF919F918F917F9134
:100160006F915F914F913F912F910F900FBE0F9024
:100170001F9018951F920F920FB60F9211248F9314
:100180009F9387B190E0837090708130910589F0E2
:100190008330910501F584B195B1909379008093F6
:1001A00078001092650087B18C7F87B9389A369AAB
:1001B00012C084B195B190937B0080937A009091A6
:1001C0006500923040F487B18C7F87B9389A369AAF
:1001D0009F5F909365009F918F910F900FBE0F903E
:1001E0001F901895C0982091680030E040917C00E5
:1001F0008091760090E0840F911D821793072CF474
:10020000C09A80E054DF10926000809160008130DD
:1002100011F1813030F0823049F1833009F04FC064
:1002200037C02091680030E08091760090E04091E6
:100230007C00841B9109821793070CF440C08091C5
:10024000750035DF82E08093600080916B00877FCE
:1002500080936B00089580916100909162000097F7
:10026000E9F480E024DF10926000089580916B0033
:1002700083FF25C080916C0090916D009093620087
:100280008093610086EE13DF83E080936000089521
:100290008091610090916200009731F001979093F6
:1002A00062008093610008958091750000DF82E014
:1002B0008093600080916B00877F80936B0008952E
:1002C0001F9380E090E07BD0182F8093760081E030
:1002D00090E075D08093770082E090E070D08093BA
:1002E0007D0083E090E06BD08093750084E090E027
:1002F0006ED090936D0080936C0012951F701093D8
:100300007C0081E08093600087B3836087BB87B106
:100310008C7F87B986B18B6886B984B38C6084BBC7
:1003200089B7826089BF12BE86EEC1DEB7DE7894DF
:1003300080916B0081FF06C055DF80916B008D7F3F
:1003400080936B0080917A0090917B0096958795C1
:100350009695879520917700281750F780916B002C
:10036000886080936B00E4CF5527002480FF02C093
:10037000060E571F660F771F6115710521F09695C0
:100380008795009799F7952F802D0895FF27EE27E1
:10039000BB27AA2760FF04C0A20FB31FE41FF51FED
:1003A000220F331F441F551F9695879577956795A4
:1003B00089F70097760771F7CF01BD010895E1999C
:1003C000FECF1FBA8EBBE09A99278DB30895A8E19E
:1003D00042E002C0A82F862FE82FE199FECF1FBA76
:1003E00005C0EEBBE09AE3950DB20D924150C8F7FF
:0603F0000895F894FFCF10
:0403F60001C8000634
:00000001FF
