:1000000016C030C031C22EC02DC088C02BC02AC03F
:10001000B9C028C027C026C025C024C023C0C1C184
:10002000C6C1EBC1ECC1D8C1DDC1E7C1E8C1112433
:100030001FBECFE5D1E0DEBFCDBF10E0A0E6B0E04F
:10004000EAECF5E002C005900D92A436B107D9F7AD
:1000500010E0A4E6B0E001C01D92A538B107E1F7B9
:1000600055D1B1C2CDCFEF92FF920F931F93209144
:1000700081003091820060E070E1621B730B90E0C0
:100080004ED27C0100E010E0B90180E090E02091C8
:10009000660030916700409168005091690051D22C
:1000A0003CE096958795779567953A95D1F76E0DD3
:1000B0007F1D801F911F609366007093670080937F
:1000C000680090936900DC01CB012CE0B695A79500
:1000D000979587952A95D1F71F910F91FF90EF90F3
:1000E000089583B7826083BF83E08ABD8AB5806349
:1000F0008ABD0895DF93CF930F92CDB7DEB78823E3
:1001000021F49AB59F7C9ABD03C08983EADF898177
:10011000809588BD0F90CF91DF9108951F920F9227
:100120000FB60F9211248F939F938091630081509B
:1001300080936300882341F486E08093630080917C
:100140006F00826080936F0087B18C7F87B987B121
:10015000836087B9369A80917C0090917D008F3FB3
:10016000910511F008F08FEF8093720080916F007D
:10017000816080936F009F918F910F900FBE0F90C1
:100180001F9018951F920F920FB60F9211248F9304
:100190009F9387B190E0837090708130910589F0D2
:1001A0008330910501F584B195B190937D008093E2
:1001B0007C001092650087B18C7F87B9389A369A97
:1001C00012C084B195B190937F0080937E0090918E
:1001D0006500923040F487B18C7F87B9389A369A9F
:1001E0009F5F909365009F918F910F900FBE0F902E
:1001F0001F90189520916C0030E040918000809114
:100200007A0090E0840F911D8217930724F480E018
:1002100071DF1092600080916000823049F183307C
:1002200030F4882351F0813009F06FC015C083305D
:1002300089F1853009F069C051C020916C0030E02F
:1002400080917A0090E040918000841B9109821790
:1002500093070CF45AC036C08091610090916200FF
:10026000009709F041C080E045DF109260000895DA
:1002700080916F0083FF49C0809170009091710060
:10028000909362008093610081EE34DF83E080937D
:10029000600008958091610090916200009791F054
:1002A0000197909362008093610080916F0083FFBB
:1002B0002CC08091700090917100909362008093A7
:1002C000610006C08091790015DF82E080936000B4
:1002D00080916F00877F80936F0008958091610007
:1002E00090916200009731F00197909362008093A3
:1002F0006100089580917900FDDE82E080936000C6
:1003000080916F00877F80936F0008951F9380E036
:1003100090E030D1182F80937A0081E090E02AD1CC
:1003200080937B0082E090E02DD1909382008093B7
:10033000810084E090E01ED18093790085E090E018
:1003400021D1909371008093700012951F701093CB
:10035000800081E08093600087B3826187BB87B1B2
:100360008C7F87B986B18B6886B984B38C6084BB77
:1003700074D089B7826089BF12BE81EEBBDEB1DE68
:10038000789412E080916A008230E1F5E091830078
:10039000EF73F0E03197E830F10590F5E15FFF4F42
:1003A000099460917900643658F56B5F05C06091DF
:1003B00079006B3028F165506093790084E090E01B
:1003C000E5D08091790096DE1093600080916F00F7
:1003D000877F80936F0014C060917A00683C80F43E
:1003E0006B5F05C060917A00613A50F06550609390
:1003F0007A0080E090E0CAD003C0C49A01C0C498DB
:1004000010926A0080916F0081FF06C0F3DE809138
:100410006F008D7F80936F0080916F0080FF0AC016
:100420008091720020DE80936C0080916F008E7F3F
:1004300080936F0080917E0090917F0096958795C4
:100440009695879520917B00281708F09BCF809187
:100450006F00886080936F0095CFA89A8BB78062F9
:100460008BBF80916A0008951F920F920FB60F9272
:1004700011242F933F934F938F939F938AB780625A
:100480008ABF339889B78D7F89BF8BB78F7D8BBF2C
:1004900080916A00882349F41092840010928300AE
:1004A00010926B0081E080936A0040916B004E30A7
:1004B000A8F4809183009091840021E030E0B09B0B
:1004C00002C020E030E0880F991F822B932B90937D
:1004D0008400809383004F5F40936B0080916B009A
:1004E0008E3019F482E080936A008DE591E00197E7
:1004F000F1F700C000008AB780628ABF339A89B7DB
:10050000826089BF8BB780628BBF9F918F914F9123
:100510003F912F910F900FBE0F901F901895552768
:10052000002480FF02C0060E571F660F771F61155B
:10053000710521F096958795009799F7952F802D55
:100540000895FF27EE27BB27AA2760FF04C0A20F4C
:10055000B31FE41FF51F220F331F441F551F96952D
:1005600087957795679589F70097760771F7CF019B
:10057000BD010895E199FECF1FBA8EBBE09A99277D
:100580008DB30895A8E1B0E042E010C0262FE199B4
:10059000FECF1CBA1FBA8EBB2DBB0FB6F894E29AE1
:1005A000E19A0FBE01960895DC01862FE82FE199AC
:1005B000FECF1FBA05C0EEBBE09AE3950DB20D92D7
:0A05C0004150C8F70895F894FFCFEA
:0405CA0001C800065E
:00000001FF
