:1000000016C030C0B7C22EC02DC088C02BC02AC0B9
:10001000B9C028C027C026C025C024C023C006C23E
:100020000CC25AC272C223C228C23FC257C2112494
:100030001FBECFE5D1E0DEBFCDBF10E0A0E6B0E04F
:10004000E8EEF6E002C005900D92A436B107D9F7AC
:1000500010E0A4E6B0E001C01D92A538B107E1F7B9
:1000600092D140C3CDCFEF92FF920F931F93209177
:1000700081003091820060E070E1621B730B90E0C0
:10008000DDD27C0100E010E0B90180E090E0209139
:100090006600309167004091680050916900E0D29D
:1000A0003CE096958795779567953A95D1F76E0DD3
:1000B0007F1D801F911F609366007093670080937F
:1000C000680090936900DC01CB012CE0B695A79500
:1000D000979587952A95D1F71F910F91FF90EF90F3
:1000E000089583B7826083BF83E08ABD8AB5806349
:1000F0008ABD0895DF93CF930F92CDB7DEB78823E3
:1001000021F49AB59F7C9ABD03C08983EADF898177
:10011000809588BD0F90CF91DF9108951F920F9227
:100120000FB60F9211248F939F938091630081509B
:1001300080936300882341F486E08093630080917C
:100140006F00826080936F0087B18C7F87B987B121
:10015000836087B9369A80917C0090917D008F3FB3
:10016000910511F008F08FEF8093720080916F007D
:10017000816080936F009F918F910F900FBE0F90C1
:100180001F9018951F920F920FB60F9211248F9304
:100190009F9387B190E0837090708130910589F0D2
:1001A0008330910501F584B195B190937D008093E2
:1001B0007C001092650087B18C7F87B9389A369A97
:1001C00012C084B195B190937F0080937E0090918E
:1001D0006500923040F487B18C7F87B9389A369A9F
:1001E0009F5F909365009F918F910F900FBE0F902E
:1001F0001F90189520916C0030E040918000809114
:100200007A0090E0840F911D8217930764F4809127
:100210006000853041F0863031F0873021F080E099
:1002200069DF1092600080916000833009F443C060
:10023000843028F48130E1F0823058F50AC08630ED
:1002400009F466C0873009F480C0853009F09AC08F
:100250004AC020916C0030E080917A0090E040919B
:100260008000841B9109821793070CF48BC04BC04C
:100270008091610090916200009731F00197909316
:10028000620080936100089580E034DF1092600086
:10029000089580916F0083FF75C0809170009091E8
:1002A0007100909362008093610081EE23DF83E010
:1002B00080936000089580916100909162000097A2
:1002C00011F10197909362008093610080916F001B
:1002D00083FF58C0809170009091710090936200EC
:1002E000809361002CC08091610090916200009722
:1002F00051F00197909362008093610089329105DB
:1003000090F080E02FC080917900F4DE82E015C08B
:100310008091610090916200009741F00197909365
:10032000620080936100809179001CC080E590E0BC
:10033000909362008093610085E0809360008091DB
:100340006F00877F80936F00089580916100909186
:100350006200009749F001979093620080936100DA
:1003600080916400C7DE089580E590E0909362007C
:100370008093610085E08093600080916F00877FAB
:1003800080936F0008950F931F93CF93DF9380E0C6
:1003900090E07FD1182F80937A0081E090E079D1AE
:1003A00080937B0082E090E07CD1909382008093E8
:1003B000810084E090E06DD18093790085E090E049
:1003C00070D1909371008093700012951F701093FC
:1003D000800081E08093600087B3826187BB87B132
:1003E0008C7F87B986B18B6886B984B38C6084BBF7
:1003F000BAD089B7826089BF12BE81EE7BDE71DE22
:100400007894C8ECD0E017E006E080916A00823072
:1004100009F07EC0E0918300EF73F0E03197E8309F
:10042000F10508F073C0E15FFF4F09946091790016
:10043000643608F06BC06B5F06C0609179006B306A
:1004400008F464C065506093790084E090E02DD199
:10045000809179004FDE0093600080916F00877F6C
:1004600080936F00D0936200C09361004FC0609191
:100470007A00683C60F46F5F05C060917A00613A71
:1004800030F0615060937A0080E090E00ED180916E
:100490007A0065E0CAD0875080936400D0936200F0
:1004A000C09361001093600031C060917B006C3894
:1004B00030F46F5F60937B0081E090E0F6D0809134
:1004C0007B0065E0B2D08B5D80936400D0936200C6
:1004D000C093610010936000C49A18C060917B00C3
:1004E000653630F0615060937B0081E090E0DDD0B4
:1004F00080917B0065E099D08B5D80936400D09300
:100500006200C093610010936000C49810926A006A
:1005100080916F0081FF06C06DDE80916F008D7F3E
:1005200080936F0080916F0080FF0AC080917200FD
:100530009ADD80936C0080916F008E7F80936F00B6
:1005400080917E0090917F009695879596958795EE
:1005500020917B00281708F058CF80916F008860A9
:1005600080936F0052CFA89A8BB780628BBF809127
:100570006A0008951F920F920FB60F9211242F93C5
:100580003F934F938F939F938AB780628ABF33982C
:1005900089B78D7F89BF8BB78F7D8BBF80916A00B4
:1005A000882349F4109284001092830010926B000B
:1005B00081E080936A0040916B004E30A8F48091F6
:1005C00083009091840021E030E0B09B02C020E0E5
:1005D00030E0880F991F822B932B90938400809397
:1005E00083004F5F40936B0080916B008E3019F455
:1005F00082E080936A008DE591E00197F1F700C0F9
:1006000000008AB780628ABF339A89B7826089BF47
:100610008BB780628BBF9F918F914F913F912F91AC
:100620000F900FBE0F901F901895002480FD060EAE
:10063000660F11F08695D1F7802D08955527002477
:1006400080FF02C0060E571F660F771F61157105E8
:1006500021F096958795009799F7952F802D08950D
:10066000FF27EE27BB27AA2760FF04C0A20FB31FF6
:10067000E41FF51F220F331F441F551F96958795C2
:100680007795679589F70097760771F7CF01BD01D8
:100690000895E199FECF1FBA8EBBE09A99278DB3DA
:1006A0000895A8E1B0E042E010C0262FE199FECF06
:1006B0001CBA1FBA8EBB2DBB0FB6F894E29AE19A12
:1006C0000FBE01960895DC01862FE82FE199FECF39
:1006D0001FBA05C0EEBBE09AE3950DB20D924150F2
:0806E000C8F70895F894FFCF5C
:0406E80001C800063F
:00000001FF
