:1000000016C030C094C22EC02DC088C02BC02AC0DC
:10001000B9C028C027C026C025C024C023C0EBC15A
:10002000F1C13AC24FC208C20EC222C237C2112465
:100030001FBECFE5D1E0DEBFCDBF10E0A0E6B0E04F
:10004000E0E9F6E002C005900D92A436B107D9F7B9
:1000500010E0A4E6B0E001C01D92A538B107E1F7B9
:1000600071D114C3CDCFEF92FF920F931F932091C4
:1000700081003091820060E070E1621B730B90E0C0
:10008000B1D27C0100E010E0B90180E090E0209165
:100090006600309167004091680050916900B4D2C9
:1000A0003CE096958795779567953A95D1F76E0DD3
:1000B0007F1D801F911F609366007093670080937F
:1000C000680090936900DC01CB012CE0B695A79500
:1000D000979587952A95D1F71F910F91FF90EF90F3
:1000E000089583B7826083BF83E08ABD8AB5806349
:1000F0008ABD0895DF93CF930F92CDB7DEB78823E3
:1001000021F49AB59F7C9ABD03C08983EADF898177
:10011000809588BD0F90CF91DF9108951F920F9227
:100120000FB60F9211248F939F938091630081509B
:1001300080936300882341F486E08093630080917C
:100140006F00826080936F0087B18C7F87B987B121
:10015000836087B9369A80917C0090917D008F3FB3
:10016000910511F008F08FEF8093720080916F007D
:10017000816080936F009F918F910F900FBE0F90C1
:100180001F9018951F920F920FB60F9211248F9304
:100190009F9387B190E0837090708130910589F0D2
:1001A0008330910501F584B195B190937D008093E2
:1001B0007C001092650087B18C7F87B9389A369A97
:1001C00012C084B195B190937F0080937E0090918E
:1001D0006500923040F487B18C7F87B9389A369A9F
:1001E0009F5F909365009F918F910F900FBE0F902E
:1001F0001F90189520916C0030E040918000809114
:100200007A0090E0840F911D8217930724F480E018
:1002100071DF1092600080916000823091F1833034
:1002200030F4882371F0813009F08BC019C085301B
:1002300009F451C0863009F46AC0833009F081C0E6
:1002400032C020916C0030E080917A0090E04091C3
:100250008000841B9109821793070CF472C04BC075
:100260008091610090916200009731F00197909326
:10027000620080936100089580E03CDF109260008E
:10028000089580916F0083FF5CC080917000909111
:100290007100909362008093610081EE2BDF83E018
:1002A00080936000089580916100909162000097B2
:1002B00011F10197909362008093610080916F002B
:1002C00083FF3FC080917000909171009093620015
:1002D0008093610016C08091610090916200009748
:1002E00051F00197909362008093610089329105EB
:1002F000C8F080E019C080917900FCDE82E0809334
:10030000600080916F00877F80936F0008958091D7
:10031000610090916200009749F00197909362000C
:100320008093610080917900E5DE089580917900E5
:10033000E1DE82E08093600080916F00877F809390
:100340006F000895EF92FF920F931F93CF93DF9367
:1003500080E090E072D1082F80937A0081E090E0F5
:100360006CD180937B0082E090E06FD1909382000B
:100370008093810084E090E060D18093790085E0F3
:1003800090E063D1909371008093700002950F709C
:100390000093800081E08093600087B3826187BB17
:1003A00087B18C7F87B986B18B6886B984B38C603E
:1003B00084BBB6D089B7826089BF12BE81EE9ADE57
:1003C00090DE789465E0F62EC0E5D0E056E0E52EAC
:1003D00008EC10E080916A00823009F076C0E0916C
:1003E0008300EF73F0E03197E830F10508F06BC05F
:1003F000E15FFF4F099460917900643608F063C0B3
:100400006B5F06C0609179006B3008F45CC065508A
:100410006093790084E090E01CD1809179006ADEDD
:10042000E092600080916F00877F80936F0010934F
:1004300062000093610047C060917A00683C08F058
:1004400042C06B5F05C060917A00613AE0F165508F
:1004500060937A0080E090E0FCD08091600085306D
:1004600021F0D0936200C0936100F09260002BC035
:1004700060917B006C3880F46B5F60937B0081E05F
:1004800090E0E7D080916000853021F0D093620049
:10049000C0936100F0926000C49A15C060917B0027
:1004A000653680F0655060937B0081E090E0D1D0AC
:1004B00080916000853021F0D0936200C09361008C
:1004C000F0926000C49810926A0080916F0081FFE2
:1004D00006C090DE80916F008D7F80936F008091C9
:1004E0006F0080FF0AC080917200BDDD80936C00B8
:1004F00080916F008E7F80936F0080917E0090913D
:100500007F00969587959695879520917B00281773
:1005100008F060CF80916F00886080936F005ACFA1
:10052000A89A8BB780628BBF80916A0008951F9252
:100530000F920FB60F9211242F933F934F938F93E7
:100540009F938AB780628ABF339889B78D7F89BFAE
:100550008BB78F7D8BBF80916A00882349F41092FE
:1005600084001092830010926B0081E080936A00F7
:1005700040916B004E30A8F48091830090918400EC
:1005800021E030E0B09B02C020E030E0880F991FEE
:10059000822B932B90938400809383004F5F409332
:1005A0006B0080916B008E3019F482E080936A00BA
:1005B0008DE591E00197F1F700C000008AB78062F5
:1005C0008ABF339A89B7826089BF8BB780628BBF3D
:1005D0009F918F914F913F912F910F900FBE0F9050
:1005E0001F9018955527002480FF02C0060E571F44
:1005F000660F771F6115710521F096958795009715
:1006000099F7952F802D0895FF27EE27BB27AA275E
:1006100060FF04C0A20FB31FE41FF51F220F331F9A
:10062000441F551F969587957795679589F700978D
:10063000760771F7CF01BD010895E199FECF1FBA8A
:100640008EBBE09A99278DB30895A8E1B0E042E00F
:1006500010C0262FE199FECF1CBA1FBA8EBB2DBB4E
:100660000FB6F894E29AE19A0FBE01960895DC0164
:10067000862FE82FE199FECF1FBA05C0EEBBE09AA6
:10068000E3950DB20D924150C8F70895F894FFCF4D
:0406900001C8000697
:00000001FF
